:020000040800F2
:10000000A80B0020ED0100081D1A0008B719000810
:10001000191A00081D160008C92200080000000077
:10002000000000000000000000000000191E000891
:100030002118000800000000891B00082D1F00087F
:10004000070200080702000807020008070200086C
:10005000070200080702000807020008070200085C
:10006000070200080702000807020008070200084C
:10007000070200080702000807020008070200083C
:10008000070200080702000807020008070200082C
:10009000070200080702000807020008070200081C
:1000A000070200080702000807020008070200080C
:1000B00007020008070200080702000807020008FC
:1000C00007020008070200080702000807020008EC
:1000D00007020008911F000819200008B920000835
:1000E00007020008070200080702000807020008CC
:1000F00007020008070200080702000807020008BC
:1001000007020008070200080702000807020008AB
:10011000070200080702000807020008070200089B
:10012000070200080702000807020008070200088B
:1001300000F002F800F04AF80AA090E8000C8244AF
:100140008344AAF10107DA4501D100F03FF8AFF28C
:10015000090EBAE80F0013F0010F18BFFB1A43F0A5
:1001600001031847B0300000D0300000103A24BF1F
:1001700078C878C1FAD8520724BF30C830C144BF0C
:1001800004680C607047000000230024002500264E
:10019000103A28BF78C1FBD8520728BF30C148BFEA
:1001A0000B607047662902F0A187642900F04C803B
:1001B000002070471FB500F0C5FB0400002000219F
:1001C00002F09EFBE0601FBD10B510BD00F0BAFC50
:1001D0001146FFF7EFFF02F08BF900F0D8FC03B4F3
:1001E000FFF7F2FF03BC02F08CF8000009488047DB
:1001F00009480047FEE7FEE7FEE7FEE7FEE7FEE709
:10020000FEE7FEE7FEE7FEE704480549054A064B20
:1002100070470000311F000831010008A8050020C8
:10022000A80B0020A8070020A807002070470000A6
:100230000FB4044910B503AA029800F071FB10BC7A
:100240005DF814FB300000202DE9F0410646002443
:1002500010687529314616A510D0AFF3008000282C
:1002600002DA404213A507E031688A0701D512A5DA
:1002700002E0490704D511A5012401E0AFF3008095
:1002800000210A2206F1240709E0B0FBF2FCB0FBD2
:10029000F2F302FB1C00303078541846491C002849
:1002A000F3D123462A463046BDE8F04100F0BAB803
:1002B000000000002D0000002B00000020000000C6
:1002C0002DE9F05F894604464FF0000ADFF824B1BB
:1002D000FB44C0F820A02046E168884700287DD074
:1002E000252806D0D4E901219047206A401C2062CD
:1002F000F1E700255F462046E1688847202806464A
:1003000007DB312E05D2B81910F8200C08B10543CF
:10031000F1E7A80701D525F00405C4F81CA00027C3
:10032000C4F818A02A2E09D0304601F0E3FF38B3F4
:1003300004EB8708303EC8F8186019E059F8041B30
:10034000204604EB87029161E1688847012F064649
:1003500018D1E069002820DA25F020051DE0D8F842
:10036000180000EB800006EB40003038C8F8180099
:100370002046E1688847064601F0BCFF0028EED120
:10038000012F0AD02E2E08D12046E16888477F1C15
:100390000646022F45F02005C4DBA069002803DAD9
:1003A000404245F00105A061E80701D025F01005A5
:1003B000A6B1A6F14100192802D8203645F40065FF
:1003C0004A463146204625604D46FFF7EBFE60B1B8
:1003D000012807D0ED1D25F0070000E007E000F13F
:1003E000080978E705F1040975E730467AE7206ADD
:1003F000BDE8F09F1C2E000030B505460B462A468E
:1004000013F8014B12F8010B08B1A042F8D01CB14F
:10041000002802D06D1CF1E7284630BD70477047B8
:10042000704770472DE9F0470D46994692460446BD
:1004300000F124080168880604D5E06921F0100164
:10044000216000E00120A84201DD471B00E00027F9
:10045000A1697A1902EB0900081AA0612078C00688
:1004600002D42046AFF30080002608E0D4E9012141
:100470001AF806009047206A401C761C20624E4500
:10048000F4DB2078C0060AD52046AFF3008006E0F2
:10049000D4E9012130209047206A401C2062381E98
:1004A000A7F10107F4DC07E0D4E9012118F8050001
:1004B0009047206A401C2062281EA5F10105F3DC4C
:1004C0002046AFF300802078000602D50220BDE868
:1004D000F0870120FBE770472DE9FF4F0C461E46D1
:1004E0004FF0FF378BB0D2E90001DDF860800A9051
:1004F0008A46C1F30A5505B93D46002108464FF02A
:100500000000BAF1000F00F4400005DA00EB8000B3
:100510004FF4400101EA50004FEA9059B9F1010F40
:1005200000DDB9460A9850EA4A000ED044F6105051
:10053000A5F2FF3545432F14B8F1000F1ED07542C8
:10054000291E1EDDC9F100021CE0B8F1010F4FF0B9
:10055000000001D0302103E0F24305E02154401CAB
:10056000B042FBDB30460022002121540B99C1F838
:100570000880C1E900200FB0BDE8F08FBD1B6D1CE5
:10058000DEE74A4600DA694206A800F065FA06ABE3
:1005900093E8070003AB83E8070050460A9900F090
:1005A0003DFB8DE80700A0F500501F380090039830
:1005B000002D09DD42F21F014A46084403A90390B9
:1005C000684600F09CFD08E0A0F500504A461F3840
:1005D00003A90390684600F0A6FD8DE8070000041B
:1005E000000C03D04FF0FF30410800E01046B8F196
:1005F000000F03D00022009215461EE0751E05D4A0
:1006000000F0A4F9303262556D1EF9D5B3460122CF
:10061000084302D000227F1C04E02078302801D15A
:1006200000227F1E002A099786D01DE0112D07DACF
:1006300000F08CF9303262556D1C50EA0102F5D1A0
:10064000084302D00098C8B10EE00021681E05E002
:10065000235C625C63542254401E491C8142F7DBD8
:10066000AB46A81B401E0990002004F80B000B9815
:10067000099AC0F80880C0E9002B7CE711264FF0EA
:10068000000859E72DE9F04F88460446D21D22F0B4
:10069000070191B0D1E90001CDE90A0101F016FE90
:1006A00002460B98C00F01D02D2007E0206881077B
:1006B00001D52B2002E0202101EAC000032A099085
:1006C00001D0072A05DB03464146204600F084F9A5
:1006D0000BE12078800601D5E06900E00620B8F142
:1006E000650F814606D0B8F1660F18D0B8F1670FD4
:1006F00070D131E00020B9F1110F009001DB11231E
:1007000001E009F101030AAA01A90CA8FFF7E4FE20
:10071000DDE90C70002609F10105834647E0012060
:100720004B4600904FF000470AAA01A90CA8FFF71A
:10073000D3FEDDE90DB00C995D46002610B909F134
:1007400001000D18B9EB050003D4C0F1FF3609F123
:100750000105A5EB09002BE0B9F1010F01DA4FF01B
:1007600001090020B9F1110F0090484601DD112365
:1007700000E003460AAA01A90CA8FFF7ADFEDDE9D7
:100780000C704D4600268346207800070AD4AB45FE
:1007900000DA5D4601A8012D04DD411911F8011CA4
:1007A000302907D04F4502DA17F1040F04DA01208F
:1007B00082460FE06D1EEEE7002F02DCED1B3E448B
:1007C00003E0781CA84200DD7D1CB81B00F1010A83
:1007D0004FF000472078000703D4AA4501DB4FF013
:1007E000FF3A0021B7F1004F0DF143088DF8431097
:1007F00024D002202B23002F01DA7F422D230A214F
:10080000021EA0F1010000DC5FB197FBF1FC97FB39
:10081000F1F201FB1C7C17460CF1300C08F801CDFD
:10082000EEE7A8F1010003702188090501D54521F3
:1008300000E06521A0F1010800F8011C09980FA94A
:10084000A1EB0807FF1D00B10120411901EBEA707F
:10085000A1693844081A401EA0612078C00602D45D
:100860002046AFF30080099828B1D4E901219047D0
:10087000206A401C20622078C00622D52046AFF3B3
:1008800000801EE0002E04DBB34502DD01A8805D80
:1008900000E03020D4E901219047206A401C20620A
:1008A000761CAAF101005FEA000A0AD100F04AF8BA
:1008B000C0680168405CD4E901219047206A401C6F
:1008C0002062281EA5F10105DCDC07E0D4E9012146
:1008D00018F8010B9047206A401C2062381EA7F1CF
:1008E0000107F3DC2046AFF30080032011B043E69C
:1008F00001694A1C02610878704700B58FB0CDE9E4
:1009000001310021059105497944CDE903101146D3
:100910006846FFF7D5FC0FB000BD0000E5FFFFFF04
:10092000074B70B50D467B44FFF7E7FF04462846AA
:1009300000F000F910B14FF0FF3070BD204670BDDF
:10094000AB1B0000004870476405002030B5B0F1D3
:100950000A024FEA900E71F100034EEA817EB0EB7D
:100960000E0061EB91014FEA101E4EEA017E10EB82
:100970000E0041EB11114FEA102E4EEA016E10EB02
:100980000E0041EB11214FEA104E4EEA014E10EBE2
:100990000E0041EB1141401841F100014FEAD00037
:1009A00040EA41704FEAD10110EB80054FEA810423
:1009B00044EA907444EB01046D1944EB0404521BA7
:1009C000A3414FF0000348BF0A3200D530BD401CA0
:1009D00041F1000130BD00002DE9F0411F46044601
:1009E00003260168072A01F4006004DB08B116A59C
:1009F00005E016A503E008B115A500E015A521F056
:100A000010002060A069C01EA0610FB1401EA0614F
:100A10002046AFF300804FB1D4E90121384690471A
:100A2000206A401C2062C01C206206E0206AFAE7AF
:100A3000D4E9012115F8010B9047761EF8D2204623
:100A4000AFF30080BDE8F0814E414E006E616E0054
:100A5000494E4600696E66002DE9F047814616460C
:100A60008AB0334878440DC88DE80D00304878448A
:100A7000801C03AC0DC884E80D0041F69B3008448F
:100A8000372190FBF1F290FBF1F5A5F1800501FB18
:100A900012041B3C02D56442012000E00020DFF874
:100AA00090A080460027FA44AAF1BE0A0DE0E007B4
:100AB00009D03246684607EB47010AEB810100F096
:100AC00032FB8DE8070064107F1C002CEFD1184F1B
:100AD0007F44AC3F18E0E80714D007EB04100DF199
:100AE000180A90E80E008AE80E00C068F04201D1B2
:100AF00098190890324606A903A800F014FB03AB2E
:100B000083E807006D10641C002DE4D1324669466D
:100B1000B8F1000F03A802D000F0F1FA01E000F0F4
:100B200002FBC9E90001C9F808200AB0BDE8F08756
:100B300018270000007B00F08000704700487047D5
:100B4000440500207546FFF7F9FFAE4605006946EB
:100B5000534620F00700854618B020B5FFF754FB38
:100B6000BDE820404FF000064FF000074FF00008AE
:100B70004FF0000B21F00701AC46ACE8C009ACE82F
:100B8000C009ACE8C009ACE8C0098D46704704460E
:100B9000AFF300802046FFF722FB00004FF0013C3E
:100BA00050F8042B51F8043B9A4221D1A2EB0C03DC
:100BB000934313EACC1317D150F8042B51F8043B9C
:100BC0009A4215D1A2EB0C03934313EACC130BD139
:100BD00050F8042B51F8043B9A4209D1A2EB0C03C4
:100BE000934313EACC13DBD04FF00000704700BFF3
:100BF000D01A01BAB1FA81F101F0180122FA01F01C
:100C0000CB40C1F12001DBB2C0B2C01A2CFA01F313
:100C1000D11A914311EAC311E6D170475FEA400C43
:100C200008BF91F0000F4FEA8C234FEAC12243EA3C
:100C300051514FEA1C5018BF00F5F0404FEA300008
:100C400018BF41F000415FEA6C5C00F02980BCF104
:100C5000FF3F08BF40F080407047130C06BF1204EE
:100C60004FF0100C4FF0000C130E04BF12020CF1E9
:100C7000080C130F04BF12010CF1040C930F04BFF6
:100C800092000CF1020CD30F04BF52000CF1010CC6
:100C900011464FF00002A0F11F00A0EB0C007047BE
:100CA00011F0004F08BF704731F000413FF4D5AF5D
:100CB0000B0C06BF09044FF0100C4FF0000C0B0E8C
:100CC00004BF09020CF1080C0B0F04BF09010CF161
:100CD000040C8B0F04BF89000CF1020CCB0F04BF76
:100CE00049000CF1010CCCF12003A0EB0C0022FA1E
:100CF00003F302FA0CF241EA030100F1010070472C
:100D000020F07F4C80EA030023F07F47ACEB070321
:100D100003F57C5300F0004003F1FF032DE9804907
:100D20004FEA154B09B44FEA144325EA0B4E24EA67
:100D300003480FF2042606EB132749083E785FEAC2
:100D4000320203FB0667C7F5000707FB06F64FEA0A
:100D500054374FEAD64606F1020607FB066CCCF183
:100D6000005C4FEA1C472CEA074C07FB06F40CFB1F
:100D700006F504EB15464FEA961634BF00204FF0F7
:100D800000404FEAD13706FB07FC4FEA1C4C0CFB36
:100D90000BF7D21B03FB0CF761EB07010CFB0EF703
:100DA000B0EB074072EB17420CFB08F734BFA2EB25
:100DB0000742B2EB074261EB17414FEA0C444FEA9E
:100DC000910706FB07FC4FEA1C4C0CFB0BF7B0EB42
:100DD000C74072EB573203FB0CF734BFA2EBC7429C
:100DE000B2EBC74261EB57310CFB0EF7B0EBC7001B
:100DF00072EB57720CFB08F734BFA2EBC702B2EBE1
:100E0000C70261EB5771039F4FEA816141EA92117A
:100E100004EBCC044FEAD1374FEA826206FB07FCB1
:100E200042EA90124FEA80604FEA1C4C0CFB0BF731
:100E3000D21B03FB0CF761EB07010CFB0EF7B0EBC9
:100E4000074072EB17420CFB08F734BFA2EB0742D6
:100E5000B2EB074261EB17414FEA8C554FEA91071D
:100E600004EB9C2406FB07FC4FEA1C4C0CFB0BF725
:100E7000B0EBC74072EB573203FB0CF734BFA2EB69
:100E8000C742B2EBC74261EB57310CFB0EF7B0EB38
:100E9000C70072EB57720CFB08F734BFA2EBC70216
:100EA000B2EBC70261EB577115EB4C254FEA81613C
:100EB00041EA92114FEA82624FEAD13742EA901238
:100EC00006FB07FC44F100044FEA80604FEA1C4C2B
:100ED0000CFB0BF7D21B03FB0CF761EB07010CFBC0
:100EE0000EF7B0EB074072EB17420CFB08F734BF6C
:100EF000A2EB0742B2EB074261EB174115EB1C1561
:100F00004FEA813141EA92414FEA823242EA90420D
:100F10004FEA80304FEA0C7644F1000448EA03437C
:100F20004EEA0B484FF0000EB2EB080C71EB0307D2
:100F300024BF624639464EEB0E0E4FF0000B0018F0
:100F4000524149414BEB0B0BB2EB080C71EB030721
:100F50007BF1000B24BF624639464EEB0E0E4FF07C
:100F6000000B0018524149414BEB0B0BB2EB080C44
:100F700071EB03077BF1000B24BF624639464EEB51
:100F80000E0E51EA020718BF46F0010616EB0E7668
:100F900055F1000254F1000103D5BDE88901BDE817
:100FA0000088BDE88901BDE80048B619524141EB0F
:100FB0000101A3F10103704780807F7E7D7C7B7AF5
:100FC0007978777676757473727171706F6E6E6DF5
:100FD0006C6C6B6A6A69686867666665646463639B
:100FE00062616160605F5F5E5E5D5D5C5C5B5B5A21
:100FF0005A5959585857575656555555545453538E
:1010000052525251515050504F4F4F4E4E4D4D4DE8
:101010004C4C4C4B4B4B4A4A4A4949494848484733
:101020004747474646464545454444444443434371
:101030004342424242414141002B26D4770021D015
:101040001CB54FEA370703B44FF010004FF0100102
:101050004FF000000FBCBDE810400BF1010BBBF1DD
:10106000010F08BF5FEA170722BF12F1010211F159
:1010700001014FF0004143F1000300F0004043EA5A
:1010800000007047F9D35708DAE746EA064613F13D
:10109000400F4FEA16461FDD13F1200FDFBF164346
:1010A0000A46002120335B42C8D0C3F1200746EA3C
:1010B000064602FA07F74FEA164646EA0706C3F164
:1010C000200722FA03F201FA07F721FA03F14FF0A1
:1010D000000342EA0702B1E746EA020646EA06468C
:1010E0004FEA164646EA0106BCBF46EA0646360CFB
:1010F0004FF000034FF000024FF000019EE72DE992
:10110000C048934630B491E8380007C831EA400C33
:1011100048BF34EA430C03D5FFF7F2FDFFF78CFF1D
:10112000F0BCBDE800882DE9C048934630B491E892
:10113000380007C810F0804F08BF13F0804F03D16C
:1011400000F005F8FFF778FFF0BCBDE8008820F05C
:101150007F4780EA030023F07F4C07EB0C03A3F5E5
:101160007C5300F00040A3F1FE0392F0000F00F06A
:10117000B38095F0000F00F077802DE901494FEA28
:1011800011404FEA144621EA004800FB06FC24EA1D
:10119000064708FB06F607FB08F800FB07F718EB05
:1011A00006484CEB164C4FEA124B18EB07484FEA37
:1011B00015464CEB174022EA0B4E0BFB06FC25EACA
:1011C00006470EFB06F607FB0EFE0BFB07F71EEBB2
:1011D000064E4CEB164C4FF000061EEB074E4CEB48
:1011E000174B18EB0B0840F1000018EB0E0B58EBF7
:1011F000000840F100008F1A4FF000013CBFC943C6
:10120000661B14BFB5EB040C00213CBFC943F61BA1
:101210004FEA17444EEA8E0E27EA04454FEA1C4770
:1012200004FB07622CEA074C05FB07F70CFB05F6ED
:1012300004FB0CFC16EB074642EB174216EB0C4680
:1012400042EB1C421BEB060658EB0202414146EA08
:101250009E0601D5BDE80189B619524141EB010155
:10126000A3F10103BDE801894FEA14454FEA114794
:1012700024EA054621EA074C05FB07F406FB07F7BD
:101280000CFB06F105FB0CFC11EB074144EB17448A
:101290004FEA124711EB0C4144EB1C4422EA074C85
:1012A00005FB07F206FB07F70CFB06F605FB0CFC3B
:1012B00016EB074642EB174216EB0C4642EB1C4579
:1012C0006A1854F1000148BF7047B619524141EB0A
:1012D0000101A3F10103704795F0000F37D04FEAE9
:1012E00011424FEA144721EA024624EA074C02FB66
:1012F00007F106FB07F70CFB06F402FB0CFC14EBF2
:10130000074441EB17414FEA154714EB0C4441EBFE
:101310001C4125EA074C02FB07F506FB07F70CFB0F
:1013200006F602FB0CFC16EB074645EB174516EBE1
:101330000C4645EB1C42121951F1000148BF7047A1
:10134000B619524141EB0101A3F1010370474FEA85
:1013500014454FEA114724EA054621EA074C05FBEC
:1013600007F106FB07F70CFB06F24FF0000605FB42
:101370000CFC12EB074241EB174112EB0C4251EB14
:101380001C4148BF7047921841EB0101A3F10103D2
:10139000704721B1826842F00102826003E08268F6
:1013A00022F001028260704710B504461248844260
:1013B00008D10121401500F015FC0021601500F056
:1013C00011FC17E00D48844208D10121001500F0FE
:1013D00009FC0021201500F005FC0BE008488442C0
:1013E00008D10121C80300F0FDFB00214FF40040AB
:1013F00000F0F8FB10BD000000240140002801406F
:10140000003C0140014600208A6802F004020AB153
:10141000012000E0002070470146C86C80B2704790
:101420000246002013680B400BB1012000E00020B1
:101430007047014600208A6802F008020AB10120C4
:1014400000E000207047000030B502460020002375
:1014500050680F4C20400D790C6844EA0524204365
:10146000506090680B4C2040D1E902542C434D79D8
:1014700044EA450420439060D06A20F470000C7C5C
:10148000641EE4B2234340EA0350D06230BD000042
:10149000FFFEF0FFFDF7F1FFF0B504460D4600201A
:1014A0000021092D11DDE068A5F10A0606EB4607CB
:1014B000072606FA07F18843A5F10A0606EB460659
:1014C00003FA06F10843E0600CE0206905EB4507EC
:1014D000072606FA07F1884305EB450603FA06F1ED
:1014E00008432061072A0FDA606B561E06EB860759
:1014F0001F2606FA07F18843561E06EB860605FAF4
:1015000006F10843606322E00D2A0FDA206BD61F34
:1015100006EB86071F2606FA07F18843D61F06EB5F
:10152000860605FA06F10843206310E0E06AA2F19E
:101530000D0606EB86071F2606FA07F18843A2F17F
:101540000D0606EB860605FA06F10843E062F0BDDB
:10155000816841F008018160704721B1826842F4DE
:10156000A002826003E0826822F4A00282607047D9
:10157000816841F0040181607047000000B587B0C8
:1015800001214FF4047000F01DFB0220ADF818009B
:1015900003208DF81A0000208DF81B0006A91D48B5
:1015A00000F03FF94FF4404000F0F0FA1A48FFF71E
:1015B000FBFE002001908DF808008DF809004FF423
:1015C000602003900020049001208DF8140001A9F0
:1015D0001148FFF739FF01210F48FFF7DAFE032317
:1015E00001220B210C48FFF757FF0B48FFF7B0FF14
:1015F00000BF0948FFF71DFF0028FAD10648FFF792
:10160000B7FF00BF0448FFF7FDFE0028FAD107B07E
:1016100000BD0000001001400024014000BFFEE7B3
:1016200008B54FF48040ADF8000048208DF8030065
:101630006946024800F0F5F808BD0000000C0140C2
:1016400008B54FF48040ADF8000010208DF803007D
:101650006946024800F0E5F808BD0000000C0140B2
:1016600010B54FF48041074800F06FF9192000F0E1
:101670006DFE4FF48041034800F069F9282000F026
:101680008BFE10BD000C01402DE9F05F00F00CFF57
:1016900000F0DEFECC2000F095F8442000F092F837
:1016A00000F002FF00F0D4FECC2000F08BF8BE204A
:1016B00000F088F800F074F8834600F071F8824674
:1016C0004FEA0A2004B244EA0B04002C0DDAE0438E
:1016D000401C01F011FA074600220B4B01F072FA90
:1016E000054601F023F981460BE0204601F004FA9B
:1016F00007460022044B01F065FA054601F016F991
:1017000081464846BDE8F09F0000B03F10B500F0AC
:1017100085FE00F0C9FE00F09BFE10BD08B501205B
:10172000ADF8000048208DF803006946014800F03C
:1017300078F808BD000C014008B50120ADF80000A4
:1017400010208DF8030003208DF80200694602483E
:1017500000F067F808BD0000000C014010B5FFF76D
:10176000EBFF00200B4908600A2000F015FE012065
:101770000949C1F88001FFF7D1FF0121074800F0B6
:10178000DBF808B1012400E00024322000F004FE60
:10179000204610BD8081214200802142000C014082
:1017A00070B50026002408E0FFF7D8FF054605FACB
:1017B00004F03043C6B2601CC4B2082CF4DB3046DF
:1017C00070BD000070B50446FFF7B6FF012520E0AC
:1017D00004F0010664106EB100200F490860022079
:1017E00000F0DAFD01200D49C1F880013C2000F035
:1017F000D3FD0CE00020084908603C2000F0CCFD3F
:1018000001200649C1F88001022000F0C5FD681CD6
:10181000C5B2082DDCDD70BD8081214200802142EF
:1018200070472DE9F04102460025002600200023E4
:101830000024002791F803C00CF00F0591F803C0B5
:101840000CF0100CBCF1000F03D091F802C04CEA70
:10185000050591F800C0BCF1000F31D014680020DC
:101860002BE04FF0010C0CFA00F3B1F800C00CEAC9
:1018700003069E4220D183004FF00F0C0CFA03F7B1
:10188000BC4305FA03FC4CEA040491F803C0BCF124
:10189000280F06D14FF0010C0CFA00FCC2F814C05E
:1018A0000AE091F803C0BCF1480F05D14FF0010CDC
:1018B0000CFA00FCC2F810C0401C0828D1D31460F8
:1018C000B1F800C0BCF1FF0F34DD546800202EE0F9
:1018D00000F1080C4FF0010808FA0CF3B1F800C051
:1018E0000CEA03069E4221D183004FF00F0C0CFA44
:1018F00003F7BC4305FA03FC4CEA040491F803C067
:10190000BCF1280F05D100F1080C08FA0CF8C2F858
:10191000148091F803C0BCF1480F07D100F1080C06
:101920004FF0010808FA0CF8C2F81080401C082893
:10193000CED35460BDE8F0810246002093680B408E
:101940000BB1012000E00020704741617047016148
:101950007047000010B504460723012221460948BC
:10196000FFF79AFD01210748FFF7F7FD00BF0221AD
:101970000448FFF755FD0028F9D00248FFF74CFD59
:1019800010BD0000002401402DE9F04107460C463F
:101990000025002608E03846FFF7DCFF0544052057
:1019A00000F0D4FC701CC6B2A642F4DBB5FBF4F028
:1019B00080B2BDE8F08100BFFEE7000008B501215C
:1019C000882000F0FFF80120ADF800008DF802003B
:1019D00010208DF8030069460D48FFF722FF4FF4F1
:1019E000C070ADF8000001208DF8020010208DF8C5
:1019F000030069460748FFF714FF01210448FFF779
:101A0000A6FF4FF4C0710348FFF7A1FF08BD000017
:101A1000000C0140001C014000BFFEE770470000C1
:101A200070B5002100230F22C47804B3154C24683C
:101A300004F4E064C4F5E064210AC1F10403CA407F
:101A4000447804FA03F184781440214309010E4CD0
:101A50000678A155047804F01F050124AC400578F0
:101A60006D11AD0005F1E025C5F8004109E00478ED
:101A700004F01F050124AC40044D0678761145F8AA
:101A8000264070BD0CED00E000E400E080E100E0E5
:101A900002490143024A1160704700000000FA0544
:101AA0000CED00E008B50121082000F08BF84FF4A0
:101AB0000070ADF8000010208DF8030003208DF8B1
:101AC000020069460148FFF7ACFE08BD000C01406A
:101AD00010B5FFF7E7FF00F009F84FF40071024876
:101AE000FFF735FF10BD0000000C014000B585B0C8
:101AF0000121880400F056F80121082000F062F866
:101B00004FF48060ADF8100018208DF8130003200A
:101B10008DF8120004A91A48FFF783FE4FF4006005
:101B2000ADF8100004208DF8130004A91448FFF745
:101B300078FE4FF4165000900020ADF80400ADF888
:101B40000600ADF80800ADF80C000C20ADF80A0056
:101B500069460C4800F032FB40F22551094800F07C
:101B6000C3FA012240F22551064800F002FB00F0C2
:101B700091FB0121034800F0C6FA05B000BD00004A
:101B8000000C014000480040704700000146002062
:101B9000034A506820F440400843506070470000FA
:101BA0000010024029B1064AD2690243044BDA61AF
:101BB00004E0034AD2698243014BDA6170470000B6
:101BC0000010024029B1064A92690243044B9A610F
:101BD00004E0034A92698243014B9A617047000016
:101BE0000010024029B1064AD2680243044BDA6071
:101BF00004E0034AD2688243014BDA607047000078
:101C00000010024030B500210022002400232D4D99
:101C10006D6805F00C0121B1042905D0082923D1F4
:101C200005E0294D056022E0274D05601FE0254DA8
:101C30006D6805F47012234D6D6805F4803402253B
:101C400005EB92421CB9214D554305600BE01D4D3B
:101C50006D6805F400351DB11C4D5543056002E06B
:101C6000194D5543056002E0174D056000BF00BFE8
:101C7000144D6D6805F0F0010909154D6B5C0568A0
:101C8000DD4045600F4D6D6805F4E061090A104DB7
:101C90006B5C4568DD4085600A4D6D6805F46051F8
:101CA000C90A0B4D6B5C4568DD40C560054D6D682C
:101CB00005F44041890B074D6B5CC568B5FBF3F536
:101CC000056130BD0010024000127A0000093D009D
:101CD000140000202400002070B5002427E000BF7D
:101CE0004FF480411448FFF727FE0028F8D03C202D
:101CF00000F052FB4FF480410F48FFF71DFE012812
:101D00000ED100BF4FF480410B48FFF715FE0128AC
:101D1000F8D0C4F1070101208840C0B2054304E0B7
:101D2000C4F10701012088408543601CC4B2082C1F
:101D3000D5DB284670BD0000000C014010B50446FC
:101D400000F050FBFFF77CFCFFF78AFCFFF768FC14
:101D500000BF4FF480411B48FFF7EEFD0028F8D08C
:101D6000322000F019FB00BF4FF480411548FFF707
:101D7000E3FD0128F8D0322000F00EFBFFF7ACFFA6
:101D80002070FFF7A9FF6070FFF7A6FFA070FFF7B4
:101D9000A3FFE070FFF7A0FF2071FFF751FC4FF4A5
:101DA00080410848FFF7D3FD207861780844A17886
:101DB0000844E17808442179884201D1012010BD0E
:101DC0000020FCE7000C01401249898881801149FC
:101DD000C988C1800F49098901810E49498941811A
:101DE0000C49898981810B49C989C1810949098ABD
:101DF00001820849498A41820649898A81820549C6
:101E0000C98AC1820349098B01830249498B4183F5
:101E1000704700003A040020704710B500F002F847
:101E200010BD00000CB50020019000903348006800
:101E300040F480303149086000BF3048006800F449
:101E4000003000900198401C0190009818B901984A
:101E5000B0F5A06FF1D12948006800F4003010B14E
:101E60000120009001E0002000900098012843D15B
:101E70002348006840F010002149086008460068C7
:101E800020F0030008600846006840F00200086087
:101E90001A48406819494860084640684860084642
:101EA000406840F4806048600846406820F47C1038
:101EB00048600846406840F4E810486008460068FA
:101EC00040F08070086000BF0C48006800F00070AF
:101ED0000028F9D00948406820F00300074948600D
:101EE0000846406840F00200486000BF0348406870
:101EF00000F00C000828F9D10CBD000000100240D1
:101F000000200240042808D14FF0E021096941F087
:101F100004014FF0E022116107E04FF0E021096970
:101F200021F004014FF0E02211617047704700007A
:101F300010B51348006840F00100114908600846D8
:101F40004068104908400E494860084600680E493C
:101F500008400B4908600846006820F480200860AB
:101F60000846406820F4FE0048604FF41F00886077
:101F7000FFF753FF4FF000600449086010BD0000F8
:101F8000001002400000FFF8FFFFF6FE08ED00E041
:101F900010B540F225511D4800F0C1F810B31B48A0
:101FA00000F08DF9C4B21A48008800F40040C8B9A6
:101FB0001748008800F4804060B10A2C03D000204C
:101FC0001349088020E01248008840F4004010497E
:101FD000088019E00D2C06D10D48008840F480409F
:101FE0000B49088010E00A480088C0F30D00094939
:101FF0000C5407480088401C0549088008460088A2
:10200000C72801DD0020088010BD00000038014015
:10201000340000207904002010B540F225512048FA
:1020200000F07DF8D8B11E4800F049F9C4B21D484F
:10203000B0F80004C0F30E0040F2FF3188420EDA1F
:102040001849B1F80014C1F30E00411C154AB2F84A
:10205000002461F30E021349A1F800240C5440F24D
:1020600024410F4800F05BF8012817D10D48B0F863
:10207000000420F4004000F500400A49A1F80004E3
:10208000074800F01CF9C4B207A10648FEF7B4F9EE
:1020900008B1012000E000200649087010BD0000D2
:1020A0000044004038000020434C4F5345440D0A83
:1020B000000000002800002010B5002440F2255147
:1020C000084800F02CF858B140F22551054800F0BE
:1020D0000BF80448001D0088C4B2204600F070FBD5
:1020E00010BD00000048004010B50022002340F65B
:1020F0006A14A14200D100BF0A1201249440A3B285
:10210000DC43048010BD21B1828942F400528281F7
:1021100004E082894DF6FF731A408281704770B5E2
:102120000246002400230025002040F66A16B14232
:1021300000D100BFC1F3421501F01F03012606FACA
:1021400003F3012D02D19689334006E0022D02D11E
:10215000168A334001E0968A33400C12012606FAB3
:1021600004F41688344013B10CB1012000E00020C3
:1021700070BDF0B50346002400260025002040F67F
:102180006A17B94200D100BF1846C1F3421401F0EA
:102190001F06012707FA06F5012C01D10C3004E0D7
:1021A000022C01D1103000E014301AB107682F431F
:1021B000076002E00768AF430760F0BD2DE9F04714
:1021C00086B005460E460024A24600BFA146002761
:1021D000B08900B100BF2F462C8A4CF6FF70044036
:1021E000F08804432C82AC894EF6F3100440B0888A
:1021F00031890843718908430443AC81AC8A4FF6A6
:10220000FF400440B0890443AC8201A8FFF7FAFC08
:102210001F48874202D1DDF810A001E0DDF80CA0D4
:10222000A88900F4004040B10AEBCA0000EB0A1094
:1022300031684900B0FBF1F807E00AEBCA0000EB97
:102240000A1031688900B0FBF1F86420B8FBF0F0A7
:1022500004012009642101FB1089A88900F40040D1
:1022600040B1322000EBC900B0FBF1F000F00700F4
:10227000044308E0322000EB09106421B0FBF1F0C8
:1022800000F00F0004432C8106B0BDE8F087000089
:102290000038014008B54FF4A060FFF7F9FB272094
:1022A0008DF8000001208DF8010000208DF802005B
:1022B00001208DF803006846FFF7B2FB08BD014618
:1022C0008888C0F30800704700BFFEE7490050EA65
:1022D000C12018BF04204A0D18BF40F0010040F291
:1022E000FF72B2EB515F08BF40F00200012808BF47
:1022F0000520704730380A2801D20120704700209D
:102300007047014600BF704710B56FF00400FFF73B
:10231000F9FD0A4800680A49B0FBF1F00949087064
:102320000846007800EB4001C1EBC0104FF6FF718A
:1023300001EAC0000449088010BD00000000002030
:1023400000127A002C0000202E0000200146114AC5
:1023500012884A434FF0E0235A6100229A611A46DC
:10236000126942F001021A6100BF4FF0E0221069C9
:1023700000F001021AB100F48032002AF5D04FF0CB
:10238000E022126922F001024FF0E0231A610022DC
:102390009A6170472E0000200146114A12784A4384
:1023A0004FF0E0235A6100229A611A46126942F006
:1023B00001021A6100BF4FF0E022106900F0010233
:1023C0001AB100F48032002AF5D04FF0E0221269F1
:1023D00022F001024FF0E0231A6100229A61704757
:1023E0002C00002008B501210820FFF7EBFB4FF47B
:1023F0008040ADF8000003208DF8020010208DF819
:10240000030069460448FFF70CFA4FF48041024884
:10241000FFF79DFA08BD0000000C014008B501213E
:102420000820FFF7CFFB0120ADF8000003208DF856
:10243000020010208DF8030069460448FFF7F1F907
:1024400001210248FFF783FA08BD0000000C01409B
:1024500010B50024FFF762F904E0601CC4B201204B
:10246000FFF79AFF01210F48FFF766FA08B1642CC5
:10247000F3DB642C01DB012010BD002404E0601CB0
:10248000C4B20120FFF788FF01210648FFF754FA84
:1024900008B9F02CF3DBF02C01DB0120ECE7002085
:1024A000EAE70000000C014010B5FFF745F90020F5
:1024B0000649086040F28A20FFF76EFF01200449B8
:1024C000C1F880010F20FFF767FF10BD8081214216
:1024D0000080214200BF054A128802F04002002A13
:1024E000F9D0C2B2014B1B1D1A8070470038014061
:1024F0008EB04FF0000B00200D90FFF75FFAFFF752
:1025000003FF4FF4A060FFF7C3FA4FF4E13000F08F
:10251000A7F9FFF733F8FFF7DBFAFFF7F7F810B189
:102520003CA0FDF785FE41A0FDF782FE71E0FFF7BC
:10253000ABF80D900D9800F063FD044622460B4663
:102540003FA0FDF775FE0A210B20FFF71DFA82461A
:1025500040F6FF70824500DB8246504600F0E3FA09
:10256000804600223B4B00F061FC06463A4A3B4B5A
:1025700000F028FB044600F0D9F98346584600F0E5
:102580003FFD04464FF06632354B00F019FC01D296
:10259000DFF8D0B0584600F033FD044622460B4623
:1025A00031A0FDF745FE03A8FFF70EFCBDF814307F
:1025B000BDF81220BDF810102EA0FDF739FEBDF8B1
:1025C0001A30BDF81820BDF816103AA0FDF730FEFD
:1025D000BDF82600BDF82410BDF82220CDE9002169
:1025E0000290BDF82030BDF81E20BDF81C103E48FA
:1025F000FDF71EFE0BA8FFF7A1FB30B19DF82D20C3
:102600009DF82C1039A0FDF713FE4FF47A70FFF7F8
:102610009DFE8CE70D0A64733138623230B3F5CA1F
:10262000BCBBAFCAA7B0DCA3A10D0A000D0ABFAAAC
:10263000CABCB2E2CAD4CAFDBEDD0D0A0000000069
:1026400074656D70657261747572653A2025302EFF
:1026500032660A0000007E40E184AE7A1E48D43F14
:1026600066E6914033338F44434F3A2025302E3273
:10267000660A0000B1EAD7BCBBB7BEB3CFC2A3BAEB
:10268000504D31646F74304346313A2025642C201C
:10269000504D32646F74354346313A2025642C2006
:1026A000504D3130646F74304346313A2025640A0E
:1026B00000000000B4F3C6F8BBB7BEB3CFC2A3BAE4
:1026C000504D31646F74303A2025642C20504D32C7
:1026D000646F74353A2025642C20504D3130646F7E
:1026E00074303A2025640A009831000873686964E0
:1026F000753A2025642E25640A00000010B50022DA
:10270000002103E0435C1A444B1CD9B21E29F9DBBB
:10271000C37F847F43EA0423934200D010BD4379F2
:10272000047943EA0423254CA380C379847943EADE
:102730000423224CE380437A047A43EA04231F4CA7
:102740002381C37A847A43EA04231C4C6381437B4C
:10275000047B43EA0423194CA381C37B847B43EAB3
:102760000423164CE381437C047C43EA0423134C8A
:102770002382C37C847C43EA0423104C6382437D20
:10278000047D43EA04230D4CA382C37D847D43EA88
:1027900004230A4CE382437E047E43EA0423074C6D
:1027A0002383C37E847E43EA0423044C6383037F34
:1027B0002377437F637700BFB0E700003A0400202F
:1027C00010B504462248007838B9422C05D10120C2
:1027D0001F4908701F48047038E01D480078012820
:1027E00007D14D2C05D102201949087019484470B1
:1027F0002CE017480078022819D1174800780028E3
:1028000015DD15480078401E1349087013480078FC
:1028100012490978491C114A1170801C0D490C5449
:102820000D48007890B90320094908700EE0084867
:10283000007803280AD1002005490870074908706C
:102840001E20054908700348FFF758FF10BD00001F
:1028500029000020580400202A0000202B0000201E
:1028600010B586B00446012144F20400FFF7AAF92E
:102870004FF40070ADF8140003208DF816001820F6
:102880008DF8170005A91C48FEF7CBFF4FF48060B8
:10289000ADF8140004208DF8170005A91648FEF7BE
:1028A000C0FF25208DF8000003208DF801008DF871
:1028B000020001208DF803006846FFF7B1F801948B
:1028C0000020ADF80800ADF80A00ADF80C00ADF836
:1028D00010000C20ADF80E0001A90848FFF76EFCAF
:1028E000012240F225510548FFF743FC012103482E
:1028F000FFF709FC06B010BD000801400038014098
:1029000010B500290AD00878002807D00548784477
:10291000FEF744F9002801D0002010BD0248784499
:1029200010BD0000260900001E09000021F0004231
:10293000A2F16052B2F5801F01F0004328BFD2F12E
:102940007F6C0BD95FEA001C43EAC20242EB507075
:1029500018BF704728BF20F001007047B2F5801FF4
:10296000BCBF184670474FEA410C1CF5001F02D24D
:10297000084600F0B6BB70B500F0CEF90000008943
:10298000FFF7F6BF4FF00040A0F580007047000051
:1029900010B591EA030F48BF83F0004300F14E8267
:1029A000841A71EB030C05D2121943EB0C03001BC4
:1029B00061EB0C01DFF824E14FEA1154A4EB135C46
:1029C0001EEA430F18BF9EEA445F73D023EA0E034A
:1029D000DCF1200E21EA045143F4801332D322FAB1
:1029E0000CFE10EB0E0023FA0CFE41EB0E01CCF1B5
:1029F000200E03FA0EFE10EB0E0051F10001B1F5AE
:102A0000801FCCF1200E32D201EB045112FA0EF2EB
:102A1000BDE8104058BF7047401C38BF5FEA420213
:102A200018BF7047002814BF20F0010041F10001D9
:102A30004FEA410313F5001F38BF7047A1F1C041B1
:102A400000F0B8B9012A43EB0302ACF1200CDCF131
:102A50001F0E32BF4FF0000E23FA0CF310EB0300F1
:102A600041EB0451B4EB115FD0D0A1EB045101F55F
:102A7000801149085FEA300001EB04510ED350F198
:102A8000000038BF12FA0EFE08D1BDE81040C9E7B9
:102A9000401C38BF5FEA4202CAD1C3E7BDE810401C
:102AA0004FEA410313F5001F38BF7047A1F1C04141
:102AB00000F080B99EEA445F08D011EA5E0FBDE8DD
:102AC000104004BF01F0004100207047BDE81040F5
:102AD00070B500F021F900BF64FBBE3E0000E0FFCE
:102AE000491058BFC1F140415B1058BFC3F140438A
:102AF0008B42EFF30080704710F0004248BF404225
:102B0000B0FA80F310FA03F10AD0C3F11D0303F504
:102B100080634FEA415002EB035202EBD121704730
:102B20004FF000007047B0FA80F310FA03F10AD0BA
:102B3000C3F11D0303F580634FEA41504FEA03528E
:102B400002EBD12170474FF00000704751EA030CAF
:102B500017D41CF5801F58BFBCF5801F00F10680FC
:102B6000994218BF704708BF9042704707D711F5C8
:102B7000801F58BF13F5801F19D4994270478942AE
:102B800070471CF5801F08D5BCF5801FF7D58B4218
:102B900018BF704708BF824270474FF4001C1CEBFF
:102BA000410F38BF1CEB430F01D28B42704770B509
:102BB00000F0B2F8922449004FF000514FF08053DA
:102BC000FFF78EBFDFF848C170B51CEA111E1EBFAB
:102BD0001CEA13159EEA0C0F95EA0C0F00F06F80AB
:102BE00081EA030423EA4C134EEAD47E21EA4C1115
:102BF00041F4801143F48013AE44A1FB024CA0FBCE
:102C00000365AEF17F7E361955EB0C05A1FB034C35
:102C10004CF10003A0FB021C16EB0C06654153F1BE
:102C20000003094218BF46F0010613F4007F0BD1E0
:102C30004FEA03314FEA0530340341EA155140EAC7
:102C400016506FF003020AE04FEAC3214FEAC52095
:102C5000F40241EA555140EA56506FF0020202EB8D
:102C60002E4201EB025585EACE710AD05FEA440C90
:102C700018BF24F0004450F1000041F1000120EAA7
:102C8000D47040F2FE7C624500D270BDA84214BFF1
:102C90004FF080444FF04044002E08BF0024BEF1A6
:102CA000806FA8BFA1F1C041BDE8704080F2828072
:102CB0004FF0000001F1C04101F0004170479EEA71
:102CC0000C0F0CEA131518BF95EA0C0F06D04FF045
:102CD000000081EA030E0EF0004170BD00F01CF808
:102CE0008900013E00F007B800F009B84FEA430C34
:102CF0005FEA5C5C08D081EA030100F05BB84FEA50
:102D0000410C5FEA5C5CF6D14FF00000014970476E
:102D10000000FF070000F87F0EF1020E2EF0030EF8
:102D20005EF8046B364205D4012A43EB030515F522
:102D3000001F12D8012841EB010C1CF5001F0CD814
:102D40000ED14FEAD17C15F5001F0CEB4C0C0CF1A9
:102D5000020C08BF4CEBD37C04E04FF0080C01E000
:102D60004FEAD37C0CEB4C0526FA05F606F0070675
:102D7000B6F1040C06D20EEB860CBDE870404CF0A8
:102D8000010C6047DFE80CF0090B02024FF0004134
:102D90004FF00000A1F5002170BD19461046012832
:102DA00051EB010418BFD4F5001484BF002001F0DA
:102DB000004170BD0808A0F500114FEA31017047CD
:102DC00053EA010C17D41CF5801F58BFBCF5801FB7
:102DD00000F106808B4218BF704708BF82427047DF
:102DE00007D713F5801F58BF11F5801F19D48B42E8
:102DF00070479B4270471CF5801F08D5BCF5801FAB
:102E0000F7D5994218BF704708BF904270474FF4FA
:102E1000001C1CEB430F38BF1CEB410F01D2994241
:102E200070470FB40CBC03BCFFF7C1BE10B591EAEC
:102E3000030F48BF83F000433FF5B2AD841A71EB36
:102E4000030C07D212198CF0004C43EB0C03001B4F
:102E500061EB0C01DFF8A4E14FEA1154A4EB135C21
:102E60001EEA430F18BF9EEA445F00F0B08023EAD9
:102E70006E03524221EA0451C3EB6E0338BF5B1E5E
:102E8000DCF1200E25D322FA0CFE10EB0E0043FAE3
:102E90000CFE41EB0E01CCF1200E03FA0EFE10EBFE
:102EA0000E0051F10001CCF1200E29D412FA0EF2DD
:102EB00001EB0451BDE8104058BF7047401C1CBFD7
:102EC000B2F1004F704700280CBF491C20F00100F0
:102ED000704712EB020E43EB030218BF4FF0010ED6
:102EE0004EEA4202ACF1200CDCF11E0E54D943FA3A
:102EF0000CFE10EB0E0051F1FF31CCF11E0ED5D5BA
:102F00000EF1010E12FA0EFE404141EB010101EB00
:102F1000445C5FEA5C5C10D910EBDE7001EB04519D
:102F200038BFBEF1004FBDE8104018BF7047002801
:102F30000CBF491C20F00100704730D24FEAD42C5E
:102F400011F5001124F400641BD0B1FA81F20B3AA0
:102F5000A41AA41ED2F12003914030FA03F31943BE
:102F6000904001EBCC71002C01EB0451BDE8104006
:102F7000A8BF704701F1C0414FF0000001F00041CF
:102F80007047B0FA80F310FA03F100D110BDE41AD3
:102F9000173C4805C90AE4E701EB045110BD49108C
:102FA00001EB0451BDE810404FEA300002E04FF061
:102FB000000170474A0008BF0042F8D0B2F5001F78
:102FC00028BF704701F000414FF0000070479EEAB3
:102FD000445F07D011EA5E0FBDE8104004BF002136
:102FE00000207047BDE8104070B5FFF795FE00BFA8
:102FF00040DFF63E83F00041104670470000E0FFDE
:1030000043004FEAD30C4FEA3C0C43401FBF40073C
:103010000CF1605113F0FE4F70471CF0006F03D1AC
:1030200000200CF0004170470CF0004343EA507060
:1030300010B540EACC0000F00EF800BF000000928E
:103040004FEA0001FFF7B6BE4FF000414FF000001D
:10305000A1F5002170470EF1020E2EF0030E5EF86E
:10306000044B244204D44FEA4102B2F17F4F11D8FD
:103070004FEA4003B3F17F4F0CD80ED14FEAD07C1A
:10308000B2F17F4F0CEB4C0C0CF1020C08BF4CEB77
:10309000D17C04E04FF0080C01E04FEAD17C0CEB4E
:1030A0004C0324FA03F404F00704B4F1040C06D230
:1030B0000EEB840CBDE810404CF0010C6047DFE8DB
:1030C0000CF0070802024FF00040A0F5800010BD90
:1030D0000846420018BFD2F1807288BF00F000405D
:1030E00010BDFF2141EAD050C0057047FDF7CABAB4
:1030F00004000008000000000000000200010000C1
:103100001000000002400000000000A000000000CD
:1031100005400000000000C8000000000C40000056
:103120000000409C00000000194000000020BCBED0
:103130000000000034400000BFC91B8E00000004E6
:10314000B5400000504BCFD06607E2CF0100000031
:103150006C4100003E8251AADFEEA734010000005E
:10316000D9420000DCB5A0E23A301F97FFFFFFFF15
:10317000B4450000FD25A0C8E9A3C14FFFFFFFFF34
:10318000FF3F00000000008000000000FF3F000043
:103190000000008000000000BFC5C1A3CEEFB8F65C
:1031A000CAFD5061727469636C657330646F743307
:1031B0003A2025642C205061727469636C65733009
:1031C000646F7435A3BA2564205061727469636CAE
:1031D000657331646F7430A3BA2564200A5061723C
:1031E0007469636C657332646F7435A3BA256420A7
:1031F0005061727469636C657335646F74303A251D
:1032000064205061727469636C657331303A25646F
:103210000A000000503200080000002038000000C2
:103220006C0100088832000838000020700B000094
:10323000880100081C00000043000000F8FFFFFFA9
:103240000C0000000E0000000F0000002E00000027
:1032500000A24A0400000000000000000102030474
:10326000060708090000000001020304010203042C
:10327000060708090204060800001E0000000000FE
:08328000000000000000000046
:0400000508000131BD
:00000001FF
